S02B0000434F4449474F5F424F4C53415F323031385F4D4F4E49544F52414D454E544F5F44455F454E45524722
S11300000C9434000C9451000C9451000C94510045
S11300100C9451000C9451000C9451000C94510018
S11300200C9451000C9451000C9451000C94510008
S11300300C9451000C947E000C9451000C945100CB
S11300400C9451000C9451000C94B9000C94510080
S11300500C9451000C9451000C9451000C945100D8
S11300600C9451000C94510011241FBECFEFD8E022
S1130070DEBFCDBF11E0A0E0B1E0EEE7F5E002C0E5
S113008005900D92A631B107D9F721E0A6E1B1E0C0
S113009001C01D92AD31B207E1F70E9477000C94C4
S11300A0BD020C94000010927C0087E880937A00D3
S11300B010927B00089580937C00EAE7F0E0808151
S11300C080648083808186FDFDCF8091780090914B
S11300D07900089581E08093800095E090938100F9
S11300E01092820080936F0080E88FBF08950E9471
S11300F06A000E9453000E94E900FFCF1F920F92F2
S11301000FB60F9211242F933F934F935F936F93E6
S11301107F938F939F93AF93BF93EF93FF9383E06A
S113012090E00E945B009093170180931601BC013C
S113013080E090E02BE030E040E050E00E948C0250
S1130140209318013093190140931A0150931B0115
S1130150FF91EF91BF91AF919F918F917F916F919B
S11301605F914F913F912F910F900FBE0F901F9071
S113017018951F920F920FB60F9211242F933F934D
S11301804F935F936F937F938F939F93AF93BF939B
S1130190EF93FF930E94FD0080931C01809118014E
S11301A0909119010E94170180E091E00E940501DD
S11301B0FF91EF91BF91AF919F918F917F916F913B
S11301C05F914F913F912F910F900FBE0F901F9011
S11301D018951092C50087E68093C40088E980933F
S11301E0C1008EE08093C2000895E0ECF0E09081BD
S11301F095FFFDCF8093C6000895E0ECF0E0808188
S11302008823ECF78091C6000895CF93DF93EC0127
S11302108881882331F021960E94F500899181110B
S1130220FBCF8DE00E94F500DF91CF910895EF920E
S1130230FF920F931F93CF93DF93EC0184369105C4
S113024020F48A30910560F058C0883E23E092077C
S113025008F4A6C0803137E2930708F4FCC055C106
S11302609C01369527953695279536952795A5ECC7
S1130270B0E20E94AE02929582958F7089279F709A
S1130280892748EE53E0849F9001859F300D949F09
S1130290300D1124C21BD30B9E013695279536953C
S11302A02795ABE7B4E10E94AE029695879544E6A4
S11302B0489F9001499F300D1124C21BD30B9E010E
S11302C0ADECBCEC0E94AE02969587959695879509
S11302D0969587959C01220F331F880F991F880FCD
S11302E0991F880F991F820F931F9E01281B390B9A
S11302F0C901805D0E94F50008C19C0136952795CF
S11303003695279536952795A5ECB0E20E94AE0266
S1130310929582958F7089279F70892748EE53E0C4
S1130320849F9001859F300D949F300D1124C21B32
S1130330D30B9E013695279536952795ABE7B4E107
S11303400E94AE028C011695079524E6209FC001F9
S1130350219F900D11248E01081B190B9801ADECFF
S1130360BCEC0E94AE02EC01D695C795D695C79514
S1130370D695C7958C2F805D0E94F500CE01880F1D
S1130380991FCC0FDD1FCC0FDD1FCC0FDD1FC80F55
S1130390D91FC8018C1B9D0B805D0E94F500B5C060
S11303A09C01369527953695279536952795A5EC86
S11303B0B0E20E94AE027C01F694E794F694E794CE
S11303C0F694E794F694E79428EE33E0E29EC001B5
S11303D0E39E900DF29E900D11247E01E81AF90A15
S11303E097013695279536952795ABE7B4E10E949A
S11303F0AE028C011695079580E3800F0E94F500EC
S113040024E6209FC001219F900D1124E701C81B01
S1130410D90B9E01ADECBCEC0E94AE028C0116958A
S11304200795169507951695079580E3800F0E940A
S1130430F500C801880F991F000F111F000F111F2D
S1130440000F111F080F191FCE01801B910B805D37
S11304500E94F5005AC09C0136952795369527953C
S113046036952795A5ECB0E20E94AE028C01129558
S113047002950F7001271F70012780E3800F0E94EF
S1130480F50028EE33E0029FC001039F900D129FF8
S1130490900D1124C81BD90B9E01369527953695CE
S11304A02795ABE7B4E10E94AE028C01169507953F
S11304B080E3800F0E94F50024E6209FC001219F65
S11304C0900D1124C81BD90B9E01ADECBCEC0E940D
S11304D0AE028C0116950795169507951695079506
S11304E080E3800F0E94F500C801880F991F000F58
S11304F0111F000F111F000F111F080F191FCE012C
S1130500801B910B805D0E94F500DF91CF911F91BC
S11305100F91FF90EF900895A1E21A2EAA1BBB1B26
S1130520FD010DC0AA1FBB1FEE1FFF1FA217B307BB
S1130530E407F50720F0A21BB30BE40BF50B661FD1
S1130540771F881F991F1A9469F760957095809595
S113055090959B01AC01BD01CF010895A29FB0010C
S1130560B39FC001A39F700D811D1124911DB29FE3
S1110570700D811D1124911D0895F894FFCF84
S113057E204641544F52202A20554E494441444569
S109058E202841290000B1
S9030000FC
