:100000000C9434000C9451000C9451000C94510049
:100010000C9451000C9451000C9451000C9451001C
:100020000C9451000C9451000C9451000C9451000C
:100030000C9451000C947F000C9451000C945100CE
:100040000C9451000C9451000C94F1000C9451004C
:100050000C9451000C9451000C9451000C945100DC
:100060000C9451000C94510011241FBECFEFD8E026
:10007000DEBFCDBF11E0A0E0B1E0E2E9F5E002C0F3
:1000800005900D92A430B107D9F721E0A4E0B1E0CA
:1000900001C01D92AE30B207E1F70E9478000C94C7
:1000A000C7020C94000080EC80937C0087E880936A
:1000B0007A0010927B00089580937C00EAE7F0E0DC
:1000C000808180648083808186FDFDCF809178006F
:1000D00090917900089581E08093800095E090935D
:1000E00081001092820080936F0080E88FBF089596
:1000F0000E946B000E9453000E94FB00FFCF1F92E2
:100100000F920FB60F9211242F933F934F935F934B
:100110006F937F938F939F93AF93BF93EF93FF93CF
:1001200083E090E00E945C009093090180930801B5
:10013000BC0180E090E02BE030E040E050E00E9425
:10014000960220930A0130930B0140930C015093C7
:100150000D016091060170910701620F731F70938A
:1001600007016093060180910401909105010196B9
:1001700090930501809304018897E1F49B01ADEC15
:10018000BCEC0E94B80296958795929582958F70E7
:1001900089279F7089270E94210180E091E00E94B9
:1001A0000F011092070110920601109205011092A2
:1001B000040106C0260F371F309307012093060164
:1001C000FF91EF91BF91AF919F918F917F916F912F
:1001D0005F914F913F912F910F900FBE0F901F9005
:1001E00018951F920F920FB60F9211240F900FBE09
:1001F0000F901F9018951092C50087E68093C40059
:1002000088E98093C1008EE08093C2000895E0ECFD
:10021000F0E0908195FFFDCF8093C6000895CF93C5
:10022000DF93EC018881882331F021960E94070139
:1002300089918111FBCF8DE00E940701DF91CF9161
:100240000895EF92FF920F931F93CF93DF93EC01EA
:100250008436910520F48A30910560F058C0883EBC
:1002600023E0920708F4A6C0803137E2930708F430
:10027000FCC055C19C013695279536952795369536
:100280002795A5ECB0E20E94B802929582958F70F6
:1002900089279F70892748EE53E0849F9001859FAE
:1002A000300D949F300D1124C21BD30B9E01369547
:1002B000279536952795ABE7B4E10E94B80296954D
:1002C000879544E6489F9001499F300D1124C21B39
:1002D000D30B9E01ADECBCEC0E94B80296958795BD
:1002E00096958795969587959C01220F331F880FC9
:1002F000991F880F991F880F991F820F931F9E01C6
:10030000281B390BC901805D0E94070108C19C01AF
:10031000369527953695279536952795A5ECB0E225
:100320000E94B802929582958F7089279F708927C5
:1003300048EE53E0849F9001859F300D949F300DCF
:100340001124C21BD30B9E01369527953695279510
:10035000ABE7B4E10E94B8028C011695079524E63C
:10036000209FC001219F900D11248E01081B190BA5
:100370009801ADECBCEC0E94B802EC01D695C79593
:10038000D695C795D695C7958C2F805D0E9407019D
:10039000CE01880F991FCC0FDD1FCC0FDD1FCC0FB6
:1003A000DD1FC80FD91FC8018C1B9D0B805D0E94EB
:1003B0000701B5C09C01369527953695279536954A
:1003C0002795A5ECB0E20E94B8027C01F694E79470
:1003D000F694E794F694E794F694E79428EE33E0E5
:1003E000E29EC001E39E900DF29E900D11247E01CD
:1003F000E81AF90A97013695279536952795ABE7C0
:10040000B4E10E94B8028C011695079580E3800F35
:100410000E94070124E6209FC001219F900D112416
:10042000E701C81BD90B9E01ADECBCEC0E94B802E1
:100430008C0116950795169507951695079580E3F7
:10044000800F0E940701C801880F991F000F111F1C
:10045000000F111F000F111F080F191FCE01801B65
:10046000910B805D0E9407015AC09C01369527952B
:100470003695279536952795A5ECB0E20E94B802EF
:100480008C01129502950F7001271F70012780E3E0
:10049000800F0E94070128EE33E0029FC001039FF6
:1004A000900D129F900D1124C81BD90B9E013695FB
:1004B000279536952795ABE7B4E10E94B8028C01E9
:1004C0001695079580E3800F0E94070124E6209F80
:1004D000C001219F900D1124C81BD90B9E01ADECCA
:1004E000BCEC0E94B8028C011695079516950795ED
:1004F0001695079580E3800F0E940701C801880FB9
:10050000991F000F111F000F111F000F111F080F5F
:10051000191FCE01801B910B805D0E940701DF91A6
:10052000CF911F910F91FF90EF900895A1E21A2EA5
:10053000AA1BBB1BFD010DC0AA1FBB1FEE1FFF1F87
:10054000A217B307E407F50720F0A21BB30BE40BD7
:10055000F50B661F771F881F991F1A9469F760951E
:100560007095809590959B01AC01BD01CF010895D8
:10057000A29FB001B39FC001A39F700D811D1124E4
:10058000911DB29F700D811D1124911D0895F89445
:02059000FFCF9B
:040592002041000004
:00000001FF
